:060000000A128A11122809
:10000800FE00030EF1000408F2000A08F300831250
:1000180003137F08F4000A128A152D2E0A128A117A
:100028001528F801D501D601D70183010A128A11D2
:100038001D280A128A15D7250A128A110A128A154A
:1000480029270A128A118C3083120313A1008330E6
:10005800A2000A128A15B2250A128A111A308312CE
:100068000313BF005E30BE006D30BD00BD0B3A28E3
:10007800BE0B3A28BF0B3A2841280A128A11FB27DF
:100088000A128A1128290A128A11FB270A128A11D0
:10009800393083120313A1008330A2000A128A1593
:1000A800B2250A128A11C0300A128A1131250A12A1
:1000B8008A115B3083120313A1008330A2000A1255
:1000C8008A15B2250A128A110A128A11CF210A1238
:1000D8008A117810003083120313AE00AF000A12A1
:1000E8008A1589270A128A110A128A11FB270A120D
:1000F8008A1128298312031355085604031D2C2935
:10010800F81010100A128A11FB270A128A116C3093
:1001180083120313A1008330A2000A128A15B225A4
:100128000A128A11C0300A128A1131250A128A115C
:100138005B3083120313A1008330A2000A128A15D0
:10014800B2250A128A110A128A11F5260A128A1190
:10015800003083120313AE00AF000A128A158927F4
:100168000A128A110A128A11FB270A128A112829EF
:100178003C3083120313A0000030A1005608A300EE
:100188005508A2000A128A1590260A128A118312AB
:1001980003132108D1002008D0003C30A70000300C
:1001A800A8005608AA005508A9000A128A155C2654
:1001B8000A128A11831203132808D3002708D200D1
:1001C80080300A128A1131250A128A1128308312C6
:1001D8000313A1008330A2000A128A15B2250A125D
:1001E8008A11C0300A128A1131250A128A11143074
:1001F80083120313AB008330AC005108AE005008E3
:10020800AD005308B0005208AF0040300A128A11FE
:100218009B230A128A11403083120313A100003075
:10022800A2000A128A15B2250A128A110330831213
:100238000313BF008A30BE005530BD00BD0B222914
:10024800BE0B2229BF0B222978184728F8187E28C8
:10025800F818BC2880300A128A1131250A128A112E
:100268004A3083120313A1008330A2000A128A15B0
:10027800B2250A128A11C0300A128A1131250A12CF
:100288008A117C3083120313AB008330AC0056080C
:10029800AE005508AD0040300A128A119B230A129D
:1002A8008A11403083120313A1000030A2000A1201
:1002B8008A15B2250A128A110A128A117F270A1290
:1002C8008A1183120313BD003D08D4005408031992
:1002D800282930305402031C9F293A30540203184D
:1002E8009F295608A1005508A0000A30A200003036
:1002F800A3000A128A158F250A128A118312031382
:1003080054082007BD0021080318210ABE003D0833
:10031800D03ED5003E080318013EFF3ED6002730E8
:100328005602103003195502031CB8290F30D500A6
:100338002730D600B82923305406031DB2295508A2
:1003480056040319B8290A128A11FB270A128A11BE
:1003580083120313D701F8141014B8292A3054064D
:10036800031DB829D501D6010A128A117F270A125E
:100378008A11003A031DB829023083120313BF0003
:100388004530BE00A930BD00BD0BC829BE0BC82929
:10039800BF0BC8292829DC3083120313AE000530AF
:1003A800AF000A128A1589270A128A119030F600BE
:1003B8000130F7000A128A1501260A128A11003A3A
:1003C800031D0800C43083120313AE000930AF00C8
:1003D8000A128A1589270A128A119030F60001300C
:1003E800F7000A128A1501260A128A11003A031D1B
:0403F8000800CF2901
:10040000FF1B0A2A83137F1883170008840A031925
:10041000FF0A08007F087F398A000408840A03194C
:10042000FF0A82006434003464340034C834003479
:10043000C83400346434003464340034C8340034C4
:10044000C83400346434003464340034C8340034B4
:10045000C834003464340034643400346434003408
:100460002C3401346434003464340034C83400342F
:10047000C83400346434003464340034C834003484
:10048000C83400346434003464340034C834003474
:10049000C83400346434003464340034903401349B
:1004A0006434003464340034C8340034C834003454
:1004B0006434003464340034C8340034C834003444
:1004C0006434003464340034C8340034C834003434
:1004D0006434003464340034643400342C34013423
:1004E0006434003464340034C8340034C834003414
:1004F0006434003464340034C8340034C834003404
:100500006434003464340034C8340034C8340034F3
:10051000643400346434003490340134E0340634FC
:100520002D3408342D3409342D3409342D34093454
:100530004D340A34EA340A34EA340A34EA340A34E8
:1005400040340C344D340A344D340A342D340934DB
:100550002D3408342D3408342D340934E034063475
:100560002D3408342D3409342D3409342D34093414
:100570004D340A34EA340A34EA340A34EA340A34A8
:1005800040340C344D340A344D340A342D3409349B
:100590002D3408342D340934E03406342D34083435
:1005A0002D3409342D3409342D340934EA340A3415
:1005B00040340C3440340C3440340C34C0340D34EA
:1005C00091340E3491340E34C0340D3440340C3434
:1005D000C0340D342D3409342D3409344D340A34EB
:1005E000EA340A34EA340A3440340C34C0340D346A
:1005F0002D3409342D3409342D340934EA340A34C5
:100600004D340A344D340A342D3409342D34083431
:100610002D340934013400340A3400346434003495
:10062000E834033410342734203420342034203488
:1006300025343034323475343A342534303432345D
:1006400075342034203420342034203420340034D5
:10065000203443346F3475346E34743469346E34FA
:100660006734203444346F3477346E34203420348B
:100670000034203445344D34453452344734453405
:100680004E34433459342034533454344F3450347A
:100690002034003453346534743420345334653496
:1006A00063347334203450347234653473347334A7
:1006B000203423340034503472346534733473344A
:1006C00020342A34203474346F3420345234653466
:1006D0007334653474340034203420345434493451
:1006E0004D34453420344934533420345534503457
:1006F0002134203420340034543469346D3465346A
:100700003A3420342534303434347534203473345E
:1007100065346334203400342034543469346D3407
:100720006534723420345334653474347534703421
:1007300020342034003483120313B9002D30B1006B
:100740003108B400831203132C08B2002B08B10047
:10075000AB0A0319AC0A3208FF00310884000A1200
:100760008A1100220A128A11B3003308BC003C0827
:1007700003192A2D25303C060319CA2B3C08B10069
:10078000390884003108831380000130B10031083A
:10079000B907A22BBA01BB01B501D32B3515013026
:1007A000AB070318AC0A2C08FF002B0884000A12C0
:1007B0008A1100220A128A11303A0319CE2BE02B3B
:1007C0002C08FF002B0884000A128A1100220A124A
:1007D0008A110A128A1572250A128A11031C3A2CF0
:1007E00083120313BA01BB010A3083120313A00062
:1007F0000030A1003B08A3003A08A2000A128A15A3
:100800008F250A128A11831203132108BB002008C6
:10081000BA002C08FF002B0884000A128A1100225B
:100820000A128A11D03EB100FF3003180030B20026
:100830003108BA070318BB0A3208BB070130AB07FF
:100840000318AC0A2C08FF002B0884000A128A1136
:1008500000220A128A110A128A1572250A128A11B6
:10086000031C3A2CF42BC03083120313B10031085F
:10087000B504542C831203132C08B2002B08B100CA
:10088000AB0A0319AC0A3208FF00310884000A12CF
:100890008A1100220A128A11BC00003A03192A2D7B
:1008A000753A0319332CA22B3408840083130008F3
:1008B000B600840A0008B7000230B1003108B4075E
:1008C000BC01BC0A05303C0603198B2C3C08B10066
:1008D00031070A3E840083300318013EFF000A12EC
:1008E0008A1100220A128A11B2000A128A11002209
:1008F0000A128A11B30033083702031D812C320813
:100900003602031C8B2C0130B1003108BC070530C6
:100910003C06031D662C3C08B100B201B11BB203BA
:100920003208803AB3003B08803A3302031D9A2C08
:100930003A0831020318AA2C831203133C08B100B1
:10094000B201B11BB2033108BA023208031CBB0367
:10095000BB02AE2C83120313BA01BB01351DC62C9A
:100960003A083B040319DF2C3030B1003908840009
:100970003108831380000130B1003108B907FF301E
:10098000BA070318BB0AFF30BB07B02C3A083B0478
:100990000319DF2C2030B10039088400310883139B
:1009A00080000130B1003108B907FF30BA070318E1
:1009B000BB0AFF30BB073A083B04031DCA2C3C08A6
:1009C000B1003108B800FF30B1003108B807380A6B
:1009D0000319A22B0A30A7000030A8003808B10084
:1009E00031070A3E840083300318013EFF000A12DB
:1009F0008A1100220A128A11A0000A128A1100220A
:100A00000A128A11A1003708A3003608A2000A12B0
:100A10008A1590260A128A11831203132108AA004C
:100A20002008A9000A128A155C260A128A1183126C
:100A300003132708303EB2003208BC003C08B10066
:100A4000390884003108831380000130B100310877
:100A5000B907E32C83120313390884008313800140
:100A6000080083120313A00008112008F6000430C8
:100A70000310F60CFF3E031D382D76080139F700F0
:100A8000F70E08087706EF39770688002008F60089
:100A900005300310F60CFF3E031D492D7608013981
:100AA000F700F70EF70D08087706DF39770688009C
:100AB0002008F60006300310F60CFF3E031D5B2DE8
:100AC00076080139F700F70EF70DF70D08087706DD
:100AD000BF39770688002008F60007300310F60CAF
:100AE000FF3E031D6E2D76080139F700F70CF70C59
:100AF000080877067F39770688000A128A1580254C
:100B00000A128A118312031320080139F600F60E27
:100B100008087606EF39760688002008F6000310EC
:100B2000760C0139F700F70EF70D08087706DF3964
:100B3000770688002008F60002300310F60CFF3E0E
:100B4000031D9D2D76080139F700F70EF70DF70DFF
:100B500008087706BF39770688002008F6000330BA
:100B60000310F60CFF3E031DB02D76080139F70087
:100B7000F70CF70C080877067F39770688000A1209
:100B80008A1580250A128A110D30F700FB30F60015
:100B9000F60BC82DF70BC82DCD2D080083120313BB
:100BA000A00008152008F60004300310F60CFF3EE4
:100BB000031DD52D76080139F700F70E08087706D2
:100BC000EF39770688002008F60005300310F60C90
:100BD000FF3E031DE62D76080139F700F70EF70DED
:100BE00008087706DF39770688002008F600063007
:100BF0000310F60CFF3E031DF82D76080139F700AF
:100C0000F70EF70DF70D08087706BF39770688004D
:100C10002008F60007300310F60CFF3E031D0B2ED4
:100C200076080139F700F70CF70C080877067F39CA
:100C3000770688000A128A1580250A128A11831203
:100C4000031320080139F600F60E08087606EF397E
:100C5000760688002008F6000310760C0139F700AC
:100C6000F70EF70D08087706DF39770688002008A9
:100C7000F60002300310F60CFF3E031D3A2E7608F4
:100C80000139F700F70EF70DF70D08087706BF39A1
:100C9000770688002008F60003300310F60CFF3EAC
:100CA000031D4D2E76080139F700F70CF70C0808E4
:100CB00077067F39770688000A128A1580250A127E
:100CC0008A115330F600F60B632E080083120313CB
:100CD000A901A31F782EA009A109A209A309A00AAE
:100CE0000319A10A0319A20A0319A30AA901A90A4F
:100CF000A71F892EA409A509A609A709A40A0319F3
:100D0000A50A0319A60A0319A70A0130F5007508F8
:100D1000A9060030AD000030AC000030AB00003060
:100D2000AA0023082204210420040319DE2EA801AE
:100D3000A80AA31BA92E0130F5000310A00DA10DD8
:100D4000A20DA30DF50B9D2E0130F5007508A80727
:100D5000992E0130F5000310AA0DAB0DAC0DAD0DB1
:100D6000F50BAB2E23082702031DC02E22082602F6
:100D7000031DC02E21082502031DC02E20082402B9
:100D8000031CD12E2008A4022108031C210FA50258
:100D90002208031C220FA6022308031C230FA7020C
:100DA0002A1401300310A30CA20CA10CA00CFF3ECE
:100DB000031DD22E0130A802031DA92E29080319F4
:100DC000EC2EAA09AB09AC09AD09AA0A0319AB0AB2
:100DD0000319AC0A0319AD0A2D08A3002C08A200C0
:100DE0002B08A1002A08A000080083120313B901F0
:100DF000BA013A08803AFF0080307F02031D022FBB
:100E00003E3039020318682F831203133908B800E3
:100E100038078E3E840082300318013EFF000A121C
:100E20008A1100220A128A11AE000A128A110022C7
:100E30000A128A11AF000A128A1589270A128A112A
:100E4000831203133908B8003807123E8400823039
:100E50000318013EFF000A128A1100220A128A11A9
:100E6000F6000A128A1100220A128A11F7000A12E9
:100E70008A1501260A128A11003A031D0800003063
:100E800083120313AE00AF000A128A1589270A12D3
:100E90008A111E30F6000030F7000A128A1501266A
:100EA0000A128A11003A031D08000130831203134D
:100EB000B9070318BA0A0030BA073A08803AFF00A7
:100EC00080307F02031D662F3E303902031C042F41
:100ED000003083120313AE00AF000A128A1589276F
:100EE0000A128A11E830F6000330F7000A128A1558
:100EF00001260A128A11003A031D0800F52E8312FA
:100F0000031386160617861707148612A630F500F7
:100F1000F50B882F0000831203138618922F861674
:100F2000313008000619972F8616323008008619CE
:100F30009C2F861633300800061AA12F86164130E2
:100F4000080086160613A630F500F50BA52F000045
:100F5000831203138618AF2F0617343008000619C2
:100F6000B42F0617353008008619B92F061736300A
:100F70000800061ABE2F061742300800061786130F
:100F8000A630F500F50BC22F00008312031386185C
:100F9000CC2F8617373008000619D12F8617383026
:100FA00008008619D62F861739300800061ADB2F5D
:100FB00086174330080086170710A630F500F50B9A
:100FC000DF2F0000831203138618E92F07142A303D
:100FD00008000619EE2F0714303008008619F32F89
:100FE000071423300800061AF82F071444300800AD
:100FF00007140030080001300A128A113125080058
:101AE400F600F5013A30760203187E2D3030760286
:101AF400031C7E2DF501F50A750C080083120313EF
:101B040088155330F500F50B852D831203138811C6
:101B14005330F500F50B8C2D0800F501F601831206
:101B24000313201C9B2D2208F5070318F60A23082B
:101B3400F60701300310A20DA30DFF3E031D9C2DDB
:101B440001300310A10CA00CFF3E031DA32D20089F
:101B54002104031D912D7608A1007508A00008003A
:101B6400831203132208FF00210884000A128A1139
:101B740000220A128A15003A03190800831203137B
:101B84002208FF00210884000A128A1100220A1286
:101B94008A150A128A11CE250A128A150130831277
:101BA4000313A1070318A20AB22D1F3083160313CF
:101BB400860081130710831203130714831603137B
:101BC4000711880101138B10303083120313900026
:101BD4000B308F00DC308E000C100C309700FF307F
:101BE40083160313920083120313950106309200A7
:101BF4000B16831603130C140B178B170800831290
:101C04000313A201A30177082302031D0B2E7608F8
:101C1400220203182B2E0A128A117F270A128A1510
:101C24002A3A031D172E01300800073083120313CC
:101C3400A1007C30A000A00B1D2EA10B1D2E0000C6
:101C4400013083120313A2070318A30A0030A30769
:101C5400052E003008008B1C352E7814F810D501A1
:101C6400D60110108B100C1C512E0B308F00DC3061
:101C74008E00F81C502E0130F0007008D7070A308F
:101C84005702031C502ED701550856040319502E31
:101C94000130D5020030031CD603D6020C107408A0
:101CA400FF0073088A0072088400710E8300FE0E20
:101CB4007E0E0900831203132708280403198B2EB0
:101CC400F701F70AA81B722E01300310A70DA80D07
:101CD400FF3E031D672E0130F6007608F707642ED9
:101CE40028082A02031D782E27082902031C802EA7
:101CF4002708A9022808031CAA03AA02013003101A
:101D0400A80CA70CFF3E031D812E0130F702031D12
:101D1400722E2A08A8002908A700080083120313BA
:101D2400A501A601200821040319C92EA401A40AAF
:101D3400A11BA82E01300310A00DA10DFF3E031D11
:101D44009D2E0130F5007508A4079A2E013003106A
:101D5400A50DA60DFF3E031DA92E21082302031D78
:101D6400B52E20082202031CBE2E2008A202210840
:101D7400031CA303A302251401300310A10CA00C1F
:101D8400FF3E031DBF2E0130A402031DA82E26080A
:101D9400A1002508A000080083120313A501A11FB8
:101DA400DA2EA009A109A00A0319A10AA501A50A0E
:101DB400A31FE52EA209A309A20A0319A30A01304D
:101DC400F5007508A506A601A7012008210403193A
:101DD4001C2FA401A40AA11BFB2E01300310A00D8B
:101DE400A10DFF3E031DF02E0130F5007508A40778
:101DF400ED2E01300310A60DA70DFF3E031DFC2E92
:101E040021082302031D082F20082202031C112F7E
:101E14002008A2022108031CA303A30226140130F4
:101E24000310A10CA00CFF3E031D122F0130A402CD
:101E3400031DFB2E25080319242FA609A709A60AAA
:101E44000319A70A2708A1002608A0000800823069
:101E540083120313A200DD30A100A10B2F2FA20BCC
:101E64002F2F8312031308118811081688160813DC
:101E740088130A128A1580250A128A1521308312C2
:101E84000313A2007530A100A10B462FA20B462F0D
:101E94004B2F8312031308168816081388130A128B
:101EA4008A1580250A128A15F93083120313A100BA
:101EB400A10B5A2F831203130816881608138813CC
:101EC4000A128A1580250A128A158312031308122E
:101ED4008816081388130A128A1580250A128A158F
:101EE40028300A128A1131250A128A150C300A1276
:101EF4008A1131250A128A1506300A128A113125EF
:101F04000A128A1501300A128A1131250800043098
:101F1400831203132F02C43003192E020318942FC3
:101F240095010800FF30B000FF30B100FF30B2006F
:101F3400FF30B3002E08A0002F08A100A201A301C6
:101F44000030A7000430A600C430A500B430A400BB
:101F54000A128A1166260A128A15831203132008AC
:101F6400B00721080318210FB82FB92FB107220891
:101F74000318220FBE2FBF2FB20723080318230A0A
:101F8400B3073308B7003208B6003108B50030088B
:101F9400B4003708031DDB2F3608031DDB2F013087
:101FA4003502031DD92F00303402031DD92F031C21
:101FB400E32F0030B7000030B6000030B500FF302A
:101FC400B4003408831603139200023083120313FF
:101FD400A0000030A1008316031312088312031318
:101FE400B000B1013008A2003108A3000A128A151A
:0C1FF400CE26831203132008950008007D
:02400E00723FFF
:00000001FF
